{
  "_format": "hh-sol-artifact-1",
  "contractName": "UniV3PairManagerForTest",
  "sourceName": "solidity/for-test/UniV3PairManagerForTest.sol",
  "abi": [
    {
      "inputs": [
        {
          "internalType": "address",
          "name": "_pool",
          "type": "address"
        },
        {
          "internalType": "address",
          "name": "_governance",
          "type": "address"
        }
      ],
      "stateMutability": "nonpayable",
      "type": "constructor"
    },
    {
      "inputs": [],
      "name": "ExcessiveSlippage",
      "type": "error"
    },
    {
      "inputs": [],
      "name": "NoGovernanceZeroAddress",
      "type": "error"
    },
    {
      "inputs": [],
      "name": "OnlyGovernance",
      "type": "error"
    },
    {
      "inputs": [],
      "name": "OnlyPendingGovernance",
      "type": "error"
    },
    {
      "inputs": [],
      "name": "OnlyPool",
      "type": "error"
    },
    {
      "inputs": [],
      "name": "UnsuccessfulTransfer",
      "type": "error"
    },
    {
      "anonymous": false,
      "inputs": [
        {
          "indexed": true,
          "internalType": "address",
          "name": "owner",
          "type": "address"
        },
        {
          "indexed": true,
          "internalType": "address",
          "name": "spender",
          "type": "address"
        },
        {
          "indexed": false,
          "internalType": "uint256",
          "name": "value",
          "type": "uint256"
        }
      ],
      "name": "Approval",
      "type": "event"
    },
    {
      "anonymous": false,
      "inputs": [
        {
          "indexed": false,
          "internalType": "address",
          "name": "_pendingGovernance",
          "type": "address"
        }
      ],
      "name": "GovernanceProposal",
      "type": "event"
    },
    {
      "anonymous": false,
      "inputs": [
        {
          "indexed": false,
          "internalType": "address",
          "name": "_governance",
          "type": "address"
        }
      ],
      "name": "GovernanceSet",
      "type": "event"
    },
    {
      "anonymous": false,
      "inputs": [
        {
          "indexed": true,
          "internalType": "address",
          "name": "from",
          "type": "address"
        },
        {
          "indexed": true,
          "internalType": "address",
          "name": "to",
          "type": "address"
        },
        {
          "indexed": false,
          "internalType": "uint256",
          "name": "value",
          "type": "uint256"
        }
      ],
      "name": "Transfer",
      "type": "event"
    },
    {
      "inputs": [],
      "name": "acceptGovernance",
      "outputs": [],
      "stateMutability": "nonpayable",
      "type": "function"
    },
    {
      "inputs": [
        {
          "internalType": "address",
          "name": "",
          "type": "address"
        },
        {
          "internalType": "address",
          "name": "",
          "type": "address"
        }
      ],
      "name": "allowance",
      "outputs": [
        {
          "internalType": "uint256",
          "name": "",
          "type": "uint256"
        }
      ],
      "stateMutability": "view",
      "type": "function"
    },
    {
      "inputs": [
        {
          "internalType": "address",
          "name": "spender",
          "type": "address"
        },
        {
          "internalType": "uint256",
          "name": "amount",
          "type": "uint256"
        }
      ],
      "name": "approve",
      "outputs": [
        {
          "internalType": "bool",
          "name": "",
          "type": "bool"
        }
      ],
      "stateMutability": "nonpayable",
      "type": "function"
    },
    {
      "inputs": [
        {
          "internalType": "address",
          "name": "",
          "type": "address"
        }
      ],
      "name": "balanceOf",
      "outputs": [
        {
          "internalType": "uint256",
          "name": "",
          "type": "uint256"
        }
      ],
      "stateMutability": "view",
      "type": "function"
    },
    {
      "inputs": [
        {
          "internalType": "uint128",
          "name": "liquidity",
          "type": "uint128"
        },
        {
          "internalType": "uint256",
          "name": "amount0Min",
          "type": "uint256"
        },
        {
          "internalType": "uint256",
          "name": "amount1Min",
          "type": "uint256"
        },
        {
          "internalType": "address",
          "name": "to",
          "type": "address"
        }
      ],
      "name": "burn",
      "outputs": [
        {
          "internalType": "uint256",
          "name": "amount0",
          "type": "uint256"
        },
        {
          "internalType": "uint256",
          "name": "amount1",
          "type": "uint256"
        }
      ],
      "stateMutability": "nonpayable",
      "type": "function"
    },
    {
      "inputs": [],
      "name": "collect",
      "outputs": [
        {
          "internalType": "uint256",
          "name": "amount0",
          "type": "uint256"
        },
        {
          "internalType": "uint256",
          "name": "amount1",
          "type": "uint256"
        }
      ],
      "stateMutability": "nonpayable",
      "type": "function"
    },
    {
      "inputs": [],
      "name": "decimals",
      "outputs": [
        {
          "internalType": "uint8",
          "name": "",
          "type": "uint8"
        }
      ],
      "stateMutability": "view",
      "type": "function"
    },
    {
      "inputs": [],
      "name": "fee",
      "outputs": [
        {
          "internalType": "uint24",
          "name": "",
          "type": "uint24"
        }
      ],
      "stateMutability": "view",
      "type": "function"
    },
    {
      "inputs": [],
      "name": "governance",
      "outputs": [
        {
          "internalType": "address",
          "name": "",
          "type": "address"
        }
      ],
      "stateMutability": "view",
      "type": "function"
    },
    {
      "inputs": [
        {
          "internalType": "uint256",
          "name": "amount0Desired",
          "type": "uint256"
        },
        {
          "internalType": "uint256",
          "name": "amount1Desired",
          "type": "uint256"
        },
        {
          "internalType": "uint256",
          "name": "amount0Min",
          "type": "uint256"
        },
        {
          "internalType": "uint256",
          "name": "amount1Min",
          "type": "uint256"
        }
      ],
      "name": "internalAddLiquidity",
      "outputs": [
        {
          "internalType": "uint128",
          "name": "liquidity",
          "type": "uint128"
        },
        {
          "internalType": "uint256",
          "name": "amount0",
          "type": "uint256"
        },
        {
          "internalType": "uint256",
          "name": "amount1",
          "type": "uint256"
        }
      ],
      "stateMutability": "nonpayable",
      "type": "function"
    },
    {
      "inputs": [
        {
          "internalType": "address",
          "name": "dst",
          "type": "address"
        },
        {
          "internalType": "uint256",
          "name": "amount",
          "type": "uint256"
        }
      ],
      "name": "internalBurn",
      "outputs": [],
      "stateMutability": "nonpayable",
      "type": "function"
    },
    {
      "inputs": [
        {
          "internalType": "address",
          "name": "dst",
          "type": "address"
        },
        {
          "internalType": "uint256",
          "name": "amount",
          "type": "uint256"
        }
      ],
      "name": "internalMint",
      "outputs": [],
      "stateMutability": "nonpayable",
      "type": "function"
    },
    {
      "inputs": [
        {
          "internalType": "address",
          "name": "token",
          "type": "address"
        },
        {
          "internalType": "address",
          "name": "payer",
          "type": "address"
        },
        {
          "internalType": "address",
          "name": "recipient",
          "type": "address"
        },
        {
          "internalType": "uint256",
          "name": "value",
          "type": "uint256"
        }
      ],
      "name": "internalPay",
      "outputs": [],
      "stateMutability": "nonpayable",
      "type": "function"
    },
    {
      "inputs": [
        {
          "internalType": "address",
          "name": "token",
          "type": "address"
        },
        {
          "internalType": "address",
          "name": "from",
          "type": "address"
        },
        {
          "internalType": "address",
          "name": "to",
          "type": "address"
        },
        {
          "internalType": "uint256",
          "name": "value",
          "type": "uint256"
        }
      ],
      "name": "internalSafeTransferFrom",
      "outputs": [],
      "stateMutability": "nonpayable",
      "type": "function"
    },
    {
      "inputs": [
        {
          "internalType": "address",
          "name": "src",
          "type": "address"
        },
        {
          "internalType": "address",
          "name": "dst",
          "type": "address"
        },
        {
          "internalType": "uint256",
          "name": "amount",
          "type": "uint256"
        }
      ],
      "name": "internalTransferTokens",
      "outputs": [],
      "stateMutability": "nonpayable",
      "type": "function"
    },
    {
      "inputs": [
        {
          "internalType": "uint256",
          "name": "amount0Desired",
          "type": "uint256"
        },
        {
          "internalType": "uint256",
          "name": "amount1Desired",
          "type": "uint256"
        },
        {
          "internalType": "uint256",
          "name": "amount0Min",
          "type": "uint256"
        },
        {
          "internalType": "uint256",
          "name": "amount1Min",
          "type": "uint256"
        },
        {
          "internalType": "address",
          "name": "to",
          "type": "address"
        }
      ],
      "name": "mint",
      "outputs": [
        {
          "internalType": "uint128",
          "name": "liquidity",
          "type": "uint128"
        }
      ],
      "stateMutability": "nonpayable",
      "type": "function"
    },
    {
      "inputs": [],
      "name": "name",
      "outputs": [
        {
          "internalType": "string",
          "name": "",
          "type": "string"
        }
      ],
      "stateMutability": "view",
      "type": "function"
    },
    {
      "inputs": [],
      "name": "pendingGovernance",
      "outputs": [
        {
          "internalType": "address",
          "name": "",
          "type": "address"
        }
      ],
      "stateMutability": "view",
      "type": "function"
    },
    {
      "inputs": [],
      "name": "pool",
      "outputs": [
        {
          "internalType": "address",
          "name": "",
          "type": "address"
        }
      ],
      "stateMutability": "view",
      "type": "function"
    },
    {
      "inputs": [],
      "name": "position",
      "outputs": [
        {
          "internalType": "uint128",
          "name": "liquidity",
          "type": "uint128"
        },
        {
          "internalType": "uint256",
          "name": "feeGrowthInside0LastX128",
          "type": "uint256"
        },
        {
          "internalType": "uint256",
          "name": "feeGrowthInside1LastX128",
          "type": "uint256"
        },
        {
          "internalType": "uint128",
          "name": "tokensOwed0",
          "type": "uint128"
        },
        {
          "internalType": "uint128",
          "name": "tokensOwed1",
          "type": "uint128"
        }
      ],
      "stateMutability": "view",
      "type": "function"
    },
    {
      "inputs": [
        {
          "internalType": "address",
          "name": "_governance",
          "type": "address"
        }
      ],
      "name": "setGovernance",
      "outputs": [],
      "stateMutability": "nonpayable",
      "type": "function"
    },
    {
      "inputs": [],
      "name": "sqrtRatioAX96",
      "outputs": [
        {
          "internalType": "uint160",
          "name": "",
          "type": "uint160"
        }
      ],
      "stateMutability": "view",
      "type": "function"
    },
    {
      "inputs": [],
      "name": "sqrtRatioBX96",
      "outputs": [
        {
          "internalType": "uint160",
          "name": "",
          "type": "uint160"
        }
      ],
      "stateMutability": "view",
      "type": "function"
    },
    {
      "inputs": [],
      "name": "symbol",
      "outputs": [
        {
          "internalType": "string",
          "name": "",
          "type": "string"
        }
      ],
      "stateMutability": "view",
      "type": "function"
    },
    {
      "inputs": [],
      "name": "token0",
      "outputs": [
        {
          "internalType": "address",
          "name": "",
          "type": "address"
        }
      ],
      "stateMutability": "view",
      "type": "function"
    },
    {
      "inputs": [],
      "name": "token1",
      "outputs": [
        {
          "internalType": "address",
          "name": "",
          "type": "address"
        }
      ],
      "stateMutability": "view",
      "type": "function"
    },
    {
      "inputs": [],
      "name": "totalSupply",
      "outputs": [
        {
          "internalType": "uint256",
          "name": "",
          "type": "uint256"
        }
      ],
      "stateMutability": "view",
      "type": "function"
    },
    {
      "inputs": [
        {
          "internalType": "address",
          "name": "to",
          "type": "address"
        },
        {
          "internalType": "uint256",
          "name": "amount",
          "type": "uint256"
        }
      ],
      "name": "transfer",
      "outputs": [
        {
          "internalType": "bool",
          "name": "",
          "type": "bool"
        }
      ],
      "stateMutability": "nonpayable",
      "type": "function"
    },
    {
      "inputs": [
        {
          "internalType": "address",
          "name": "from",
          "type": "address"
        },
        {
          "internalType": "address",
          "name": "to",
          "type": "address"
        },
        {
          "internalType": "uint256",
          "name": "amount",
          "type": "uint256"
        }
      ],
      "name": "transferFrom",
      "outputs": [
        {
          "internalType": "bool",
          "name": "",
          "type": "bool"
        }
      ],
      "stateMutability": "nonpayable",
      "type": "function"
    },
    {
      "inputs": [
        {
          "internalType": "uint256",
          "name": "amount0Owed",
          "type": "uint256"
        },
        {
          "internalType": "uint256",
          "name": "amount1Owed",
          "type": "uint256"
        },
        {
          "internalType": "bytes",
          "name": "data",
          "type": "bytes"
        }
      ],
      "name": "uniswapV3MintCallback",
      "outputs": [],
      "stateMutability": "nonpayable",
      "type": "function"
    },
    {
      "stateMutability": "payable",
      "type": "receive"
    }
  ],
  "bytecode": "0x61014060405260006004553480156200001757600080fd5b5060405162003135380380620031358339810160408190526200003a9162000aa3565b8181806001600160a01b038116620000645760405162b293ed60e81b815260040160405180910390fd5b600080546001600160a01b0319166001600160a01b03928316178155606084901b6001600160601b03191660c0526040805163ddca3f4360e01b81529051919285169163ddca3f4391600480820192602092909190829003018186803b158015620000ce57600080fd5b505afa158015620000e3573d6000803e3d6000fd5b505050506040513d601f19601f8201168201806040525081019062000109919062000b93565b90508062ffffff1660e08162ffffff1660e81b815250506000836001600160a01b0316630dfe16816040518163ffffffff1660e01b815260040160206040518083038186803b1580156200015c57600080fd5b505afa15801562000171573d6000803e3d6000fd5b505050506040513d601f19601f8201168201806040525081019062000197919062000a7e565b90506000846001600160a01b031663d21220a76040518163ffffffff1660e01b815260040160206040518083038186803b158015620001d557600080fd5b505afa158015620001ea573d6000803e3d6000fd5b505050506040513d601f19601f8201168201806040525081019062000210919062000a7e565b6001600160601b0319606084811b821660805282901b1660a052604080516395d89b4160e01b815290519192506001600160a01b038416916395d89b4191600480820192600092909190829003018186803b1580156200026f57600080fd5b505afa15801562000284573d6000803e3d6000fd5b505050506040513d6000823e601f3d908101601f19168201604052620002ae919081019062000adb565b816001600160a01b03166395d89b416040518163ffffffff1660e01b815260040160006040518083038186803b158015620002e857600080fd5b505afa158015620002fd573d6000803e3d6000fd5b505050506040513d6000823e601f3d908101601f1916820160405262000327919081019062000adb565b6040516020016200033a92919062000c0a565b6040516020818303038152906040526002908051906020019062000360929190620009bb565b50816001600160a01b03166395d89b416040518163ffffffff1660e01b815260040160006040518083038186803b1580156200039b57600080fd5b505afa158015620003b0573d6000803e3d6000fd5b505050506040513d6000823e601f3d908101601f19168201604052620003da919081019062000adb565b816001600160a01b03166395d89b416040518163ffffffff1660e01b815260040160006040518083038186803b1580156200041457600080fd5b505afa15801562000429573d6000803e3d6000fd5b505050506040513d6000823e601f3d908101601f1916820160405262000453919081019062000adb565b6040516020016200046692919062000bba565b604051602081830303815290604052600390805190602001906200048c929190620009bb565b50620004a7620d899f196200055960201b62000fb11760201c565b6001600160a01b0316610100816001600160a01b031660601b81525050620004dd620d89a06200055960201b62000fb11760201c565b606090811b6001600160601b031916610120526040805191820181526001600160a01b03938416808352929093166020820181905262ffffff949094169201829052600780546001600160a01b0319169091179055600880546001600160b81b031916909217600160a01b9091021790555062000dc492505050565b60008060008360020b1262000572578260020b62000581565b8260020b620005819062000d62565b905062000592620d89e71962000d3c565b60020b811115620005cd5760405162461bcd60e51b81526020600482015260016024820152601560fa1b604482015260640160405180910390fd5b600060018216620005e357600160801b620005f5565b6ffffcb933bd6fad37aa2d162d1a5940015b6001600160881b0316905060028216156200062d57608062000628826ffff97272373d413259a46990580e213a62000c93565b901c90505b60048216156200065a57608062000655826ffff2e50f5f656932ef12357cf3c7fdcc62000c93565b901c90505b60088216156200068757608062000682826fffe5caca7e10e4e61c3624eaa0941cd062000c93565b901c90505b6010821615620006b4576080620006af826fffcb9843d60f6159c9db58835c92664462000c93565b901c90505b6020821615620006e1576080620006dc826fff973b41fa98c081472e6896dfb254c062000c93565b901c90505b60408216156200070e57608062000709826fff2ea16466c96a3843ec78b326b5286162000c93565b901c90505b60808216156200073b57608062000736826ffe5dee046a99a2a811c461f1969c305362000c93565b901c90505b6101008216156200076957608062000764826ffcbe86c7900a88aedcffc83b479aa3a462000c93565b901c90505b6102008216156200079757608062000792826ff987a7253ac413176f2b074cf7815e5462000c93565b901c90505b610400821615620007c5576080620007c0826ff3392b0822b70005940c7a398e4b70f362000c93565b901c90505b610800821615620007f3576080620007ee826fe7159475a2c29b7443b29c7fa6e889d962000c93565b901c90505b611000821615620008215760806200081c826fd097f3bdfd2022b8845ad8f792aa582562000c93565b901c90505b6120008216156200084f5760806200084a826fa9f746462d870fdf8a65dc1f90e061e562000c93565b901c90505b6140008216156200087d57608062000878826f70d869a156d2a1b890bb3df62baf32f762000c93565b901c90505b618000821615620008ab576080620008a6826f31be135f97d08fd981231505542fcfa662000c93565b901c90505b62010000821615620008da576080620008d5826f09aa508b5b7a84e1c677de54f3e99bc962000c93565b901c90505b620200008216156200090857608062000903826e5d6af8dedb81196699c329225ee60462000c93565b901c90505b620400008216156200093557608062000930826d2216e584f5fa1ea926041bedfe9862000c93565b901c90505b62080000821615620009605760806200095b826b048a170391f7dc42444e8fa262000c93565b901c90505b60008460020b13156200097e576200097b8160001962000c7c565b90505b6200098f6401000000008262000d25565b156200099d576001620009a0565b60005b620009b39060ff16602083901c62000c61565b949350505050565b828054620009c99062000ce8565b90600052602060002090601f016020900481019282620009ed576000855562000a38565b82601f1062000a0857805160ff191683800117855562000a38565b8280016001018555821562000a38579182015b8281111562000a3857825182559160200191906001019062000a1b565b5062000a4692915062000a4a565b5090565b5b8082111562000a46576000815560010162000a4b565b80516001600160a01b038116811462000a7957600080fd5b919050565b60006020828403121562000a9157600080fd5b62000a9c8262000a61565b9392505050565b6000806040838503121562000ab757600080fd5b62000ac28362000a61565b915062000ad26020840162000a61565b90509250929050565b60006020828403121562000aee57600080fd5b81516001600160401b038082111562000b0657600080fd5b818401915084601f83011262000b1b57600080fd5b81518181111562000b305762000b3062000dae565b604051601f8201601f19908116603f0116810190838211818310171562000b5b5762000b5b62000dae565b8160405282815287602084870101111562000b7557600080fd5b62000b8883602083016020880162000cb5565b979650505050505050565b60006020828403121562000ba657600080fd5b815162ffffff8116811462000a9c57600080fd5b636b4c502d60e01b81526000835162000bdb81600485016020880162000cb5565b602f60f81b600491840191820152835162000bfe81600584016020880162000cb5565b01600501949350505050565b6a025b2b2b819b926281016960ad1b81526000835162000c3281600b85016020880162000cb5565b602f60f81b600b91840191820152835162000c5581600c84016020880162000cb5565b01600c01949350505050565b6000821982111562000c775762000c7762000d82565b500190565b60008262000c8e5762000c8e62000d98565b500490565b600081600019048311821515161562000cb05762000cb062000d82565b500290565b60005b8381101562000cd257818101518382015260200162000cb8565b8381111562000ce2576000848401525b50505050565b600181811c9082168062000cfd57607f821691505b6020821081141562000d1f57634e487b7160e01b600052602260045260246000fd5b50919050565b60008262000d375762000d3762000d98565b500690565b60008160020b627fffff1981141562000d595762000d5962000d82565b60000392915050565b6000600160ff1b82141562000d7b5762000d7b62000d82565b5060000390565b634e487b7160e01b600052601160045260246000fd5b634e487b7160e01b600052601260045260246000fd5b634e487b7160e01b600052604160045260246000fd5b60805160601c60a05160601c60c05160601c60e05160e81c6101005160601c6101205160601c6122bb62000e7a6000396000818161054a015261165201526000818161037001526116310152600061065f0152600081816102e10152818161078201528181610b8901528181610c4b01528181610d1901528181610d6c01528181610daa01528181610e0901528181610ef6015281816115940152611709015260006105d30152600061029501526122bb6000f3fe6080604052600436106101d15760003560e01c806395d89b41116100f7578063cf51148d11610095578063ddca3f4311610064578063ddca3f431461064d578063e522538114610695578063eaf00b23146106aa578063f39c38a0146106ca57600080fd5b8063cf51148d1461058c578063d21220a7146105c1578063d3487997146105f5578063dd62ed3e1461061557600080fd5b8063a9059cbb116100d1578063a9059cbb146104f8578063ab033ea914610518578063c627526114610538578063cf45affb1461056c57600080fd5b806395d89b4114610466578063a3e6dc281461047b578063a5dc7d4d146104b357600080fd5b806323b872dd1161016f5780633a323bdf1161013e5780633a323bdf146103d95780634c0549b0146103f95780635aa6e6751461041957806370a082311461043957600080fd5b806323b872dd1461033e5780632ea28f5b1461035e578063313ce5671461039257806335001a1a146103b957600080fd5b80630dfe1681116101ab5780630dfe16811461028357806316f0115b146102cf57806318160ddd14610303578063238efcbc1461032757600080fd5b806306fdde03146101dd57806309218e9114610208578063095ea7b31461025357600080fd5b366101d857005b600080fd5b3480156101e957600080fd5b506101f26106ea565b6040516101ff919061209d565b60405180910390f35b34801561021457600080fd5b5061021d610778565b604080516001600160801b039687168152602081019590955284019290925283166060830152909116608082015260a0016101ff565b34801561025f57600080fd5b5061027361026e366004611c0a565b610860565b60405190151581526020016101ff565b34801561028f57600080fd5b506102b77f000000000000000000000000000000000000000000000000000000000000000081565b6040516001600160a01b0390911681526020016101ff565b3480156102db57600080fd5b506102b77f000000000000000000000000000000000000000000000000000000000000000081565b34801561030f57600080fd5b5061031960045481565b6040519081526020016101ff565b34801561033357600080fd5b5061033c6108cc565b005b34801561034a57600080fd5b50610273610359366004611bc9565b610955565b34801561036a57600080fd5b506102b77f000000000000000000000000000000000000000000000000000000000000000081565b34801561039e57600080fd5b506103a7601281565b60405160ff90911681526020016101ff565b3480156103c557600080fd5b5061033c6103d4366004611c0a565b610a1e565b3480156103e557600080fd5b5061033c6103f4366004611c0a565b610a2c565b34801561040557600080fd5b5061033c610414366004611b78565b610a36565b34801561042557600080fd5b506000546102b7906001600160a01b031681565b34801561044557600080fd5b50610319610454366004611b22565b60066020526000908152604090205481565b34801561047257600080fd5b506101f2610a48565b34801561048757600080fd5b5061049b610496366004611f57565b610a55565b6040516001600160801b0390911681526020016101ff565b3480156104bf57600080fd5b506104d36104ce366004611f25565b610a85565b604080516001600160801b0390941684526020840192909252908201526060016101ff565b34801561050457600080fd5b50610273610513366004611c0a565b610aa6565b34801561052457600080fd5b5061033c610533366004611b22565b610abc565b34801561054457600080fd5b506102b77f000000000000000000000000000000000000000000000000000000000000000081565b34801561057857600080fd5b5061033c610587366004611bc9565b610b3b565b34801561059857600080fd5b506105ac6105a7366004611d3b565b610b4b565b604080519283526020830191909152016101ff565b3480156105cd57600080fd5b506102b77f000000000000000000000000000000000000000000000000000000000000000081565b34801561060157600080fd5b5061033c610610366004611ea5565b610cfe565b34801561062157600080fd5b50610319610630366004611b3f565b600560209081526000928352604080842090915290825290205481565b34801561065957600080fd5b506106817f000000000000000000000000000000000000000000000000000000000000000081565b60405162ffffff90911681526020016101ff565b3480156106a157600080fd5b506105ac610dd6565b3480156106b657600080fd5b5061033c6106c5366004611b78565b610fa5565b3480156106d657600080fd5b506001546102b7906001600160a01b031681565b600280546106f79061219d565b80601f01602080910402602001604051908101604052809291908181526020018280546107239061219d565b80156107705780601f1061074557610100808354040283529160200191610770565b820191906000526020600020905b81548152906001019060200180831161075357829003601f168201915b505050505081565b60008060008060007f00000000000000000000000000000000000000000000000000000000000000006001600160a01b031663514ea4bf30620d899f19620d89a06040516020016107cb93929190611fc2565b604051602081830303815290604052805190602001206040518263ffffffff1660e01b81526004016107ff91815260200190565b60a06040518083038186803b15801561081757600080fd5b505afa15801561082b573d6000803e3d6000fd5b505050506040513d601f19601f8201168201806040525081019061084f9190611d85565b939992985090965094509092509050565b3360008181526005602090815260408083206001600160a01b038716808552925280832085905551919290917f8c5be1e5ebec7d5bd14f71427d1e84f3dd0314c0f7b2291e5b200ac8c7c3b925906108bb9086815260200190565b60405180910390a350600192915050565b6001546001600160a01b031633146108f757604051637ef5703160e11b815260040160405180910390fd5b60018054600080546001600160a01b0383166001600160a01b031991821681179092559091169091556040519081527fc73be659241aade67e9a059bcf21494955018b213dbd1179054ccf928b13f3b69060200160405180910390a1565b6001600160a01b03831660008181526005602090815260408083203380855292528220549192909190821480159061098f57506000198114155b15610a055760006109a0858361215a565b6001600160a01b038881166000818152600560209081526040808320948916808452948252918290208590559051848152939450919290917f8c5be1e5ebec7d5bd14f71427d1e84f3dd0314c0f7b2291e5b200ac8c7c3b925910160405180910390a3505b610a108686866113d2565b6001925050505b9392505050565b610a288282611480565b5050565b610a28828261150a565b610a4284848484610fa5565b50505050565b600380546106f79061219d565b6000610a638686868661158c565b50909150610a7c9050826001600160801b038316611480565b95945050505050565b6000806000610a968787878761158c565b9250925092509450945094915050565b6000610ab33384846113d2565b50600192915050565b6000546001600160a01b03163314610ae7576040516354348f0360e01b815260040160405180910390fd5b600180546001600160a01b0319166001600160a01b0383169081179091556040519081527fe987aaedf9d279143bdf1eee16cf1d0feb47742867d81083df8d6cd0a5ac857f9060200160405180910390a150565b610b468383836113d2565b505050565b60405163a34123a760e01b8152620d899f196004820152620d89a060248201526001600160801b038516604482015260009081906001600160a01b037f0000000000000000000000000000000000000000000000000000000000000000169063a34123a7906064016040805180830381600087803b158015610bcc57600080fd5b505af1158015610be0573d6000803e3d6000fd5b505050506040513d601f19601f82011682018060405250810190610c049190611e81565b909250905084821080610c1657508381105b15610c34576040516397c7f53760e01b815260040160405180910390fd5b6040516309e3d67b60e31b81526001600160a01b037f00000000000000000000000000000000000000000000000000000000000000001690634f1eb3d890610c8f908690620d899f1990620d89a09088908890600401612060565b6040805180830381600087803b158015610ca857600080fd5b505af1158015610cbc573d6000803e3d6000fd5b505050506040513d601f19601f82011682018060405250810190610ce09190611d0c565b5050610cf533876001600160801b031661150a565b94509492505050565b6000610d0c82840184611c51565b9050336001600160a01b037f00000000000000000000000000000000000000000000000000000000000000001614610d5757604051634b60273560e01b815260040160405180910390fd5b8415610d91578051516020820151610d9191907f000000000000000000000000000000000000000000000000000000000000000088610fa5565b8315610dcf57610dcf81600001516020015182602001517f000000000000000000000000000000000000000000000000000000000000000087610fa5565b5050505050565b6000805481906001600160a01b03163314610e04576040516354348f0360e01b815260040160405180910390fd5b6000807f00000000000000000000000000000000000000000000000000000000000000006001600160a01b031663514ea4bf30620d899f19620d89a0604051602001610e5293929190611fc2565b604051602081830303815290604052805190602001206040518263ffffffff1660e01b8152600401610e8691815260200190565b60a06040518083038186803b158015610e9e57600080fd5b505afa158015610eb2573d6000803e3d6000fd5b505050506040513d601f19601f82011682018060405250810190610ed69190611d85565b6000546040516309e3d67b60e31b81529297509095506001600160a01b037f000000000000000000000000000000000000000000000000000000000000000081169550634f1eb3d89450610f3e93501690620d899f1990620d89a09088908890600401612060565b6040805180830381600087803b158015610f5757600080fd5b505af1158015610f6b573d6000803e3d6000fd5b505050506040513d601f19601f82011682018060405250810190610f8f9190611d0c565b6001600160801b03918216969116945092505050565b610a42848484846117da565b60008060008360020b12610fc8578260020b610fd5565b8260020b610fd59061220f565b9050610fe4620d89e7196121ec565b60020b81111561101e5760405162461bcd60e51b81526020600482015260016024820152601560fa1b604482015260640160405180910390fd5b60006001821661103257600160801b611044565b6ffffcb933bd6fad37aa2d162d1a5940015b70ffffffffffffffffffffffffffffffffff169050600282161561108357608061107e826ffff97272373d413259a46990580e213a612113565b901c90505b60048216156110ad5760806110a8826ffff2e50f5f656932ef12357cf3c7fdcc612113565b901c90505b60088216156110d75760806110d2826fffe5caca7e10e4e61c3624eaa0941cd0612113565b901c90505b60108216156111015760806110fc826fffcb9843d60f6159c9db58835c926644612113565b901c90505b602082161561112b576080611126826fff973b41fa98c081472e6896dfb254c0612113565b901c90505b6040821615611155576080611150826fff2ea16466c96a3843ec78b326b52861612113565b901c90505b608082161561117f57608061117a826ffe5dee046a99a2a811c461f1969c3053612113565b901c90505b6101008216156111aa5760806111a5826ffcbe86c7900a88aedcffc83b479aa3a4612113565b901c90505b6102008216156111d55760806111d0826ff987a7253ac413176f2b074cf7815e54612113565b901c90505b6104008216156112005760806111fb826ff3392b0822b70005940c7a398e4b70f3612113565b901c90505b61080082161561122b576080611226826fe7159475a2c29b7443b29c7fa6e889d9612113565b901c90505b611000821615611256576080611251826fd097f3bdfd2022b8845ad8f792aa5825612113565b901c90505b61200082161561128157608061127c826fa9f746462d870fdf8a65dc1f90e061e5612113565b901c90505b6140008216156112ac5760806112a7826f70d869a156d2a1b890bb3df62baf32f7612113565b901c90505b6180008216156112d75760806112d2826f31be135f97d08fd981231505542fcfa6612113565b901c90505b620100008216156113035760806112fe826f09aa508b5b7a84e1c677de54f3e99bc9612113565b901c90505b6202000082161561132e576080611329826e5d6af8dedb81196699c329225ee604612113565b901c90505b62040000821615611358576080611353826d2216e584f5fa1ea926041bedfe98612113565b901c90505b6208000082161561138057608061137b826b048a170391f7dc42444e8fa2612113565b901c90505b60008460020b131561139b57611398816000196120ff565b90505b6113aa640100000000826121d8565b156113b65760016113b9565b60005b6113ca9060ff16602083901c6120e7565b949350505050565b6001600160a01b038316600090815260066020526040812080548392906113fa90849061215a565b90915550506001600160a01b038216600090815260066020526040812080548392906114279084906120e7565b92505081905550816001600160a01b0316836001600160a01b03167fddf252ad1be2c89b69c2b068fc378daa952ba7f163c4a11628f55a4df523b3ef8360405161147391815260200190565b60405180910390a3505050565b806004600082825461149291906120e7565b90915550506001600160a01b038216600090815260066020526040812080548392906114bf9084906120e7565b90915550506040518181526001600160a01b038316906000907fddf252ad1be2c89b69c2b068fc378daa952ba7f163c4a11628f55a4df523b3ef906020015b60405180910390a35050565b806004600082825461151c919061215a565b90915550506001600160a01b0382166000908152600660205260408120805483929061154990849061215a565b90915550506040518181526000906001600160a01b038416907fddf252ad1be2c89b69c2b068fc378daa952ba7f163c4a11628f55a4df523b3ef906020016114fe565b6000806000807f00000000000000000000000000000000000000000000000000000000000000006001600160a01b0316633850c7bd6040518163ffffffff1660e01b815260040160e06040518083038186803b1580156115eb57600080fd5b505afa1580156115ff573d6000803e3d6000fd5b505050506040513d601f19601f820116820180604052508101906116239190611de7565b5050505050509050611678817f00000000000000000000000000000000000000000000000000000000000000007f00000000000000000000000000000000000000000000000000000000000000008b8b6118d4565b6040805160a080820183526007546001600160a01b039081168385018181526008548084166060808801918252600160a01b90920462ffffff9081166080808a01918252948952336020998a019081528a51998a019690965291518616888a01529051169086015290518216848201528451808503909101815291830193849052633c8a7d8d60e01b9093529296507f000000000000000000000000000000000000000000000000000000000000000090911691633c8a7d8d9161174e913091620d899f1991620d89a0918b919060a401612013565b6040805180830381600087803b15801561176757600080fd5b505af115801561177b573d6000803e3d6000fd5b505050506040513d601f19601f8201168201806040525081019061179f9190611e81565b9093509150858310806117b157508482105b156117cf576040516397c7f53760e01b815260040160405180910390fd5b509450945094915050565b604080516001600160a01b0385811660248301528481166044830152606480830185905283518084039091018152608490920183526020820180516001600160e01b03166323b872dd60e01b179052915160009283929088169161183e9190611ff7565b6000604051808303816000865af19150503d806000811461187b576040519150601f19603f3d011682016040523d82523d6000602084013e611880565b606091505b50915091508115806118ae57508051158015906118ae5750808060200190518101906118ac9190611c36565b155b156118cc576040516316369daf60e31b815260040160405180910390fd5b505050505050565b6000836001600160a01b0316856001600160a01b031611156118f4579293925b846001600160a01b0316866001600160a01b03161161191f57611918858585611996565b9050610a7c565b836001600160a01b0316866001600160a01b03161015611981576000611946878686611996565b90506000611955878986611a00565b9050806001600160801b0316826001600160801b0316106119765780611978565b815b92505050610a7c565b61198c858584611a00565b9695505050505050565b6000826001600160a01b0316846001600160a01b031611156119b6579192915b60006119d9856001600160a01b0316856001600160a01b0316600160601b611a36565b9050610a7c6119fb84836119ed8989612132565b6001600160a01b0316611a36565b611ae5565b6000826001600160a01b0316846001600160a01b03161115611a20579192915b6113ca6119fb83600160601b6119ed8888612132565b600080806000198587098587029250828110838203039150508060001415611a705760008411611a6557600080fd5b508290049050610a17565b808411611a7c57600080fd5b60008486880960026001871981018816978890046003810283188082028403028082028403028082028403028082028403028082028403029081029092039091026000889003889004909101858311909403939093029303949094049190911702949350505050565b806001600160801b0381168114611afb57600080fd5b919050565b80518015158114611afb57600080fd5b805161ffff81168114611afb57600080fd5b600060208284031215611b3457600080fd5b8135610a1781612258565b60008060408385031215611b5257600080fd5b8235611b5d81612258565b91506020830135611b6d81612258565b809150509250929050565b60008060008060808587031215611b8e57600080fd5b8435611b9981612258565b93506020850135611ba981612258565b92506040850135611bb981612258565b9396929550929360600135925050565b600080600060608486031215611bde57600080fd5b8335611be981612258565b92506020840135611bf981612258565b929592945050506040919091013590565b60008060408385031215611c1d57600080fd5b8235611c2881612258565b946020939093013593505050565b600060208284031215611c4857600080fd5b610a1782611b00565b60008183036080811215611c6457600080fd5b6040516040810181811067ffffffffffffffff82111715611c9557634e487b7160e01b600052604160045260246000fd5b6040526060821215611ca657600080fd5b611cae6120b0565b91508335611cbb81612258565b82526020840135611ccb81612258565b6020830152604084013562ffffff81168114611ce657600080fd5b6040830152908152606083013590611cfd82612258565b60208101919091529392505050565b60008060408385031215611d1f57600080fd5b8251611d2a81612270565b6020840151909250611b6d81612270565b60008060008060808587031215611d5157600080fd5b8435611d5c81612270565b935060208501359250604085013591506060850135611d7a81612258565b939692955090935050565b600080600080600060a08688031215611d9d57600080fd5b8551611da881612270565b8095505060208601519350604086015192506060860151611dc881612270565b6080870151909250611dd981612270565b809150509295509295909350565b600080600080600080600060e0888a031215611e0257600080fd5b8751611e0d81612258565b8097505060208801518060020b8114611e2557600080fd5b9550611e3360408901611b10565b9450611e4160608901611b10565b9350611e4f60808901611b10565b925060a088015160ff81168114611e6557600080fd5b9150611e7360c08901611b00565b905092959891949750929550565b60008060408385031215611e9457600080fd5b505080516020909101519092909150565b60008060008060608587031215611ebb57600080fd5b8435935060208501359250604085013567ffffffffffffffff80821115611ee157600080fd5b818701915087601f830112611ef557600080fd5b813581811115611f0457600080fd5b886020828501011115611f1657600080fd5b95989497505060200194505050565b60008060008060808587031215611f3b57600080fd5b5050823594602084013594506040840135936060013592509050565b600080600080600060a08688031215611f6f57600080fd5b853594506020860135935060408601359250606086013591506080860135611dd981612258565b60008151808452611fae816020860160208601612171565b601f01601f19169290920160200192915050565b60609390931b6bffffffffffffffffffffffff19168352600291820b60e890811b6014850152910b901b6017820152601a0190565b60008251612009818460208701612171565b9190910192915050565b60018060a01b03861681528460020b60208201528360020b60408201526001600160801b038316606082015260a06080820152600061205560a0830184611f96565b979650505050505050565b6001600160a01b03959095168552600293840b60208601529190920b60408401526001600160801b03918216606084015216608082015260a00190565b602081526000610a176020830184611f96565b6040516060810167ffffffffffffffff811182821017156120e157634e487b7160e01b600052604160045260246000fd5b60405290565b600082198211156120fa576120fa61222c565b500190565b60008261210e5761210e612242565b500490565b600081600019048311821515161561212d5761212d61222c565b500290565b60006001600160a01b03838116908316818110156121525761215261222c565b039392505050565b60008282101561216c5761216c61222c565b500390565b60005b8381101561218c578181015183820152602001612174565b83811115610a425750506000910152565b600181811c908216806121b157607f821691505b602082108114156121d257634e487b7160e01b600052602260045260246000fd5b50919050565b6000826121e7576121e7612242565b500690565b60008160020b627fffff198114156122065761220661222c565b60000392915050565b6000600160ff1b8214156122255761222561222c565b5060000390565b634e487b7160e01b600052601160045260246000fd5b634e487b7160e01b600052601260045260246000fd5b6001600160a01b038116811461226d57600080fd5b50565b6001600160801b038116811461226d57600080fdfea26469706673582212203a65a7621db6f0c75daf622de295189b0d0de1dee028557fd0e3bf6a78fd741a64736f6c63430008070033",
  "linkReferences": {},
  "deployedLinkReferences": {}
}